{
  "_format": "hh-sol-artifact-1",
  "contractName": "WavePortal",
  "sourceName": "contracts/WavePortal.sol",
  "abi": [
    {
      "inputs": [],
      "stateMutability": "nonpayable",
      "type": "constructor"
    },
    {
      "inputs": [],
      "name": "getAllSenders",
      "outputs": [
        {
          "internalType": "address[]",
          "name": "",
          "type": "address[]"
        }
      ],
      "stateMutability": "view",
      "type": "function"
    },
    {
      "inputs": [],
      "name": "getLatestSender",
      "outputs": [
        {
          "internalType": "address",
          "name": "",
          "type": "address"
        }
      ],
      "stateMutability": "view",
      "type": "function"
    },
    {
      "inputs": [],
      "name": "getTotalWaves",
      "outputs": [
        {
          "internalType": "uint256",
          "name": "",
          "type": "uint256"
        }
      ],
      "stateMutability": "view",
      "type": "function"
    },
    {
      "inputs": [],
      "name": "wave",
      "outputs": [],
      "stateMutability": "nonpayable",
      "type": "function"
    }
  ],
  "bytecode": "0x608060405234801561001057600080fd5b506100596040518060400160405280602081526020017f466972737420636f6e74726163742c20686f7065207468697320776f726b732e81525061005e60201b6103171760201c565b6101e1565b6100fa81604051602401610072919061015f565b6040516020818303038152906040527f41304fac000000000000000000000000000000000000000000000000000000007bffffffffffffffffffffffffffffffffffffffffffffffffffffffff19166020820180517bffffffffffffffffffffffffffffffffffffffffffffffffffffffff83818316178352505050506100fd60201b60201c565b50565b60008151905060006a636f6e736f6c652e6c6f679050602083016000808483855afa5050505050565b600061013182610181565b61013b818561018c565b935061014b81856020860161019d565b610154816101d0565b840191505092915050565b600060208201905081810360008301526101798184610126565b905092915050565b600081519050919050565b600082825260208201905092915050565b60005b838110156101bb5780820151818401526020810190506101a0565b838111156101ca576000848401525b50505050565b6000601f19601f8301169050919050565b610857806101f06000396000f3fe608060405234801561001057600080fd5b506004361061004c5760003560e01c80636fe15b441461005157806383d42b481461005b5780639a2cdc0814610079578063b2aeb44e14610097575b600080fd5b6100596100b5565b005b6100636101b3565b6040516100709190610608565b60405180910390f35b610081610241565b60405161008e91906106ac565b60405180910390f35b61009f61028c565b6040516100ac91906105ed565b60405180910390f35b60016000808282546100c7919061071c565b9250508190555033600160006101000a81548173ffffffffffffffffffffffffffffffffffffffff021916908373ffffffffffffffffffffffffffffffffffffffff1602179055506002339080600181540180825580915050600190039060005260206000200160009091909190916101000a81548173ffffffffffffffffffffffffffffffffffffffff021916908373ffffffffffffffffffffffffffffffffffffffff1602179055506101b16040518060400160405280600d81526020017f2573206861732077617665642100000000000000000000000000000000000000815250336103b0565b565b6060600280548060200260200160405190810160405280929190818152602001828054801561023757602002820191906000526020600020905b8160009054906101000a900473ffffffffffffffffffffffffffffffffffffffff1673ffffffffffffffffffffffffffffffffffffffff16815260200190600101908083116101ed575b5050505050905090565b60006102846040518060400160405280601781526020017f5765206861766520256420746f74616c2077617665732100000000000000000081525060005461044c565b600054905090565b60006102ef6040518060400160405280601281526020017f4c61746573742073656e6465723a202573210000000000000000000000000000815250600160009054906101000a900473ffffffffffffffffffffffffffffffffffffffff166103b0565b600160009054906101000a900473ffffffffffffffffffffffffffffffffffffffff16905090565b6103ad8160405160240161032b919061062a565b6040516020818303038152906040527f41304fac000000000000000000000000000000000000000000000000000000007bffffffffffffffffffffffffffffffffffffffffffffffffffffffff19166020820180517bffffffffffffffffffffffffffffffffffffffffffffffffffffffff83818316178352505050506104e8565b50565b61044882826040516024016103c692919061064c565b6040516020818303038152906040527f319af333000000000000000000000000000000000000000000000000000000007bffffffffffffffffffffffffffffffffffffffffffffffffffffffff19166020820180517bffffffffffffffffffffffffffffffffffffffffffffffffffffffff83818316178352505050506104e8565b5050565b6104e4828260405160240161046292919061067c565b6040516020818303038152906040527f9710a9d0000000000000000000000000000000000000000000000000000000007bffffffffffffffffffffffffffffffffffffffffffffffffffffffff19166020820180517bffffffffffffffffffffffffffffffffffffffffffffffffffffffff83818316178352505050506104e8565b5050565b60008151905060006a636f6e736f6c652e6c6f679050602083016000808483855afa5050505050565b600061051d8383610529565b60208301905092915050565b61053281610772565b82525050565b61054181610772565b82525050565b6000610552826106d7565b61055c81856106fa565b9350610567836106c7565b8060005b8381101561059857815161057f8882610511565b975061058a836106ed565b92505060018101905061056b565b5085935050505092915050565b60006105b0826106e2565b6105ba818561070b565b93506105ca8185602086016107ae565b6105d381610810565b840191505092915050565b6105e7816107a4565b82525050565b60006020820190506106026000830184610538565b92915050565b600060208201905081810360008301526106228184610547565b905092915050565b6000602082019050818103600083015261064481846105a5565b905092915050565b6000604082019050818103600083015261066681856105a5565b90506106756020830184610538565b9392505050565b6000604082019050818103600083015261069681856105a5565b90506106a560208301846105de565b9392505050565b60006020820190506106c160008301846105de565b92915050565b6000819050602082019050919050565b600081519050919050565b600081519050919050565b6000602082019050919050565b600082825260208201905092915050565b600082825260208201905092915050565b6000610727826107a4565b9150610732836107a4565b9250827fffffffffffffffffffffffffffffffffffffffffffffffffffffffffffffffff03821115610767576107666107e1565b5b828201905092915050565b600061077d82610784565b9050919050565b600073ffffffffffffffffffffffffffffffffffffffff82169050919050565b6000819050919050565b60005b838110156107cc5780820151818401526020810190506107b1565b838111156107db576000848401525b50505050565b7f4e487b7100000000000000000000000000000000000000000000000000000000600052601160045260246000fd5b6000601f19601f830116905091905056fea26469706673582212208a6eed37d63006ed903baac781c44d0e56351d1e63a1bf9568e2ab875381a09864736f6c63430008000033",
  "linkReferences": {},
  "deployedLinkReferences": {}
}